:020000040800F2
:1000000000060020E1020008E3020008E302000805
:10001000E3020008E3020008E3020008E30200082C
:10002000E3020008E3020008E3020008BD30000814
:10003000E3020008E3020008E3020008E30200080C
:10004000E3020008E3020008E3020008E3020008FC
:10005000E3020008E3020008FD4500082946000805
:100060005546000881460008AD46000811120008F8
:10007000391200086512000891120008BD1200082C
:10008000E512000811130008E3020008E30200086B
:10009000E3020008E3020008E3020008D946000872
:1000A000E3020008E3020008E3020008E30200089C
:1000B000E3020008E3020008E3020008E30200088C
:1000C000E3020008E3020008E3020008E30200087C
:1000D000E3020008E3020008B1470008C547000832
:1000E0003D470008E3020008E3020008E3020008BD
:1000F000E3020008E3020008E30200083D130008E1
:10010000E3020008E3020008ED470008E3020008EC
:10011000E3020008E3020008E3020008E30200082B
:100120006913000891130008BD130008E9130008C3
:1001300015140008E3020008E3020008E3020008C7
:10014000E3020008E3020008E3020008E3020008FB
:100150003D1400086914000895140008D9470008E8
:10016000E3020008E3020008E3020008E3020008DB
:10017000E3020008913C0008E3020008E3020008E3
:10018000E3020008E3020008E3020008E3020008BB
:10019000E3020008E3020008E3020008E3020008AB
:1001A000E3020008E3020008E3020008E30200089B
:1001B000E3020008E3020008E3020008E30200088B
:1001C000E3020008E3020008E3020008E30200087B
:1001D000E30200087D3C0008E3020008E302000897
:1001E000E3020008E3020008E3020008E30200085B
:1001F000E3020008E3020008E3020008E30200084B
:10020000E3020008E3020008E3020008E30200083A
:10021000E3020008E3020008E3020008E30200082A
:10022000E3020008E3020008E3020008E30200081A
:10023000E3020008E3020008E3020008E30200080A
:10024000E3020008E3020008E3020008E3020008FA
:10025000E3020008E3020008E3020008E3020008EA
:10026000E3020008E3020008E3020008E3020008DA
:10027000E3020008E3020008E3020008E3020008CA
:10028000E3020008E3020008E3020008E3020008BA
:10029000E3020008E3020008E3020008E3020008AA
:1002A000E3020008E3020008E3020008E30200089A
:1002B000E3020008E3020008E3020008E30200088A
:1002C000E3020008E3020008E3020008E30200087A
:1002D000E3020008E3020008E3020008E30200086A
:1002E00002E000F000F8FEE772B6374880F30888B5
:1002F000364880F3098836483649086040F20000E5
:10030000CCF200004EF63471CEF200010860BFF36B
:100310004F8FBFF36F8F40F20000C0F2F0004EF637
:100320008851CEF200010860BFF34F8FBFF36F8F8B
:100330004FF00000E1EE100A4EF63C71CEF20001E3
:100340000860062080F31488BFF36F8F02F018FF57
:1003500003F012FF4FF055301F491B4A91423CBF3A
:1003600041F8040BFAE71D49184A91423CBF41F895
:10037000040BFAE71A491B4A1B4B9A423EBF51F83D
:10038000040B42F8040BF8E700201849184A914280
:100390003CBF41F8040BFAE702F030FF03F06EFFB8
:1003A000144C154DAC4203DA54F8041B8847F9E7A6
:1003B00000F0CEF8114C124DAC4203DA54F8041B95
:1003C0008847F9E702F018BF00060020002200204D
:1003D0000000000808ED00E00000002000060020FA
:1003E000F04C0008002200206C2200207022002027
:1003F00030510020E0020008E0020008E00200089E
:10040000E00200082DE9F04F2DED108AC1F80CD064
:10041000D0F80CD0BDEC108ABDE8F08F002383F338
:1004200011882846A047002002F0CCF9FEE702F030
:100430005BF900DFFEE7000080EA0102844612F06B
:10044000030F4FD111F0030F32D14DF8044D11F0CD
:10045000040F51F8043B0BD0A3F101329A4312F080
:10046000803F04BF4CF8043B51F8043B16D100BF59
:1004700051F8044BA3F101329A4312F0803FA4F1EA
:1004800001320BD14CF8043BA24312F0803F04BF71
:1004900051F8043B4CF8044BEAD023460CF8013BDE
:1004A00013F0FF0F4FEA3323F8D15DF8044B704788
:1004B00011F0010F06D011F8012B0CF8012B002AC6
:1004C00008BF704711F0020FBFD031F8022B12F0B5
:1004D000FF0F16BF2CF8022B8CF8002012F47F4F70
:1004E000B3D1704711F8012B0CF8012B002AF9D178
:1004F000704700BF032A30B415D941EA0004A407AD
:1005000084460B4604D0541E0FE0043A032A08D94F
:100510001946604653F8044B5CF8045BA542F4D0DE
:10052000F1E760461946541E7AB1431E013902199B
:1005300001E09A4209D013F8010F11F801CF60458C
:10054000F7D0A0EB0C0030BC7047002030BC7047E7
:1005500038B500F02BFC00F0EFFD02F06FFD054612
:1005600002F0A2FD0446B8B90E4B9D4217D00133EC
:100570009D420DBF00250A2504460124002002F0FB
:1005800067FD0CB100F076F800F076FD284600F02B
:100590001DF900F06FF8F9E700250124EEE70546A4
:1005A000ECE700BF010007B008B500F0CDFBA0F1FB
:1005B00020035842584108BD07B541F212030221F9
:1005C00001A8ADF8043000F0DBFB03B05DF804FBDC
:1005D00038B5302383F31188174803680BB102F054
:1005E000BDF90023154A4FF47A71134802F0ACF9B3
:1005F000002383F31188124C236813B12368013B55
:100600002360636813B16368013B63600D4D2B7811
:1006100033B963687BB9022000F096FC3223636033
:100620002B78032B07D163682BB9022000F08CFCD8
:100630004FF47A73636038BD80230020D105000831
:10064000742300207C230020084B187003280CD84A
:10065000DFE800F008050208022000F06BBC022071
:1006600000F058BC024B00225A6070477C230020E7
:1006700074230020F8B5504B504A1C4619680131CC
:1006800000F0988004339342F8D16268A242C0F02F
:1006900091804B4B9B6803F1006303F500439A4242
:1006A00080F08880002000F0A7FB0220FFF7CCFF3D
:1006B000444B0021D3F8E820C3F8E810D3F8102108
:1006C000C3F81011D3F81021D3F8EC20C3F8EC10C4
:1006D000D3F81421C3F81411D3F81421D3F8F0205F
:1006E000C3F8F010D3F81821C3F81811D3F8182163
:1006F000D3F8802042F00062C3F88020D3F8802035
:1007000022F00062C3F88020D3F88020D3F8802044
:1007100042F00072C3F88020D3F8802022F00072EB
:10072000C3F88020D3F8803072B64FF0E023C3F8CE
:10073000084DD4E90004BFF34F8FBFF36F8F224AF7
:10074000C2F88410BFF34F8F536923F48033536191
:10075000BFF34F8FD2F8803043F6E076C3F3C9057C
:10076000C3F34E335B0103EA060C29464CEA81775A
:100770000139C2F87472F9D2203B13F1200FF2D183
:10078000BFF34F8FBFF36F8FBFF34F8FBFF36F8FE9
:10079000536923F4003353610023C2F85032BFF38E
:1007A0004F8FBFF36F8F302383F31188854680F31B
:1007B00008882047F8BD00BF00800008208000089E
:1007C000002200200044025800ED00E02DE9F04F27
:1007D00095B0DFF8DCB22022FF2101900CA8DBF8F5
:1007E000086000F0F3FBAD4A1378A3B90121AC48CF
:1007F00011700360302383F3118803680BB102F09A
:10080000ADF80023A74A4FF47A71A54802F09CF88E
:10081000002383F31188019B13B1A34B019A1A6043
:10082000A24A1378032B03D0002313709E4A53600F
:100830004FF00009019DCA464C46C846012000F011
:1008400079FB25B1984B1B68002B00F01982002022
:1008500000F07AFA0590059B002BF2DB012000F0F6
:1008600059FB059B213B1F2BE8D801A252F823F02E
:10087000F108000819090008AB0900083D08000844
:100880003D0800083D080008310A0008F10B000887
:100890000B0B00086D0B0008950B0008BB0B000844
:1008A0003D080008CD0B00083D0800083F0C00087B
:1008B0008F0900083D080008870C0008FD080008A3
:1008C0008F0900083D0800086D0B00083D0800086E
:1008D0003D0800083D0800083D0800083D080008E4
:1008E0003D0800083D0800083D080008AB09000865
:1008F0000220FFF759FE002840F00581019BB9F165
:10090000000F08BF1D4641F21233022107A8ADF8BF
:100910001C3000F035FA91E74FF47A7000F014FAC9
:10092000071EEBDB0220FFF73FFE0028E6D0013F69
:10093000052F00F2D081DFE807F0030A0D10133510
:100940000523042107A8079300F01AFA17E00421F1
:100950005748F9E704215748F6E704215648F3E7DA
:100960004FF01C08404608F1040800F047FA042143
:10097000079007A800F004FAB8F12C0FF2D1012378
:100980004FF00008BB404AEA03035FFA83FA00F025
:1009900069FB24B10AF00B030B2B08BF0025FFF7FE
:1009A0000BFE4BE704214548CEE7002CA6D00AF009
:1009B0000B030B2B5ED10220FFF7F6FD0446002847
:1009C00058D00120002700F017FA0220FFF73CFE64
:1009D0001FFA87F9484600F01FFA054688B9334BDD
:1009E00001222E4602201A7000F094FADBF808303B
:1009F000B34216D800262D4BA1461E702A4B5E60CE
:100A0000C5E7059948460137A1F1400251425141DD
:100A100000F012FA05460028DAD1A14641F212137D
:100A200073E7304600F0EAF90130F6D10436DDE72D
:100A3000002C3FF463AF0AF00B030B2B1AD10220FA
:100A4000FFF702FE322000F07FF9071E12DB17F0DD
:100A500003030FD1BA19DBF808108A420AD8B7F598
:100A6000807F07D8164A9F4206DCC820FFF79CFD0E
:100A7000044638BB012441E74FF47A70CDE90232D5
:100A800000F062F9059005990029FFF637AF059946
:100A9000039A029B02F8011B0133E4E77023002054
:100AA00080230020D1050008742300207C2300202F
:100AB0000022002004220020082200200C22002016
:100AC000702200201F2E11D8C6F120020CAB26F098
:100AD00003008249BA42184428BF3A46029200F005
:100AE00055FA029AFF217D4800F070FABB10C7F357
:100AF00087027A493046029300F070FA00288DD0C0
:100B0000029B06EB8306044641E70220FFF74CFDFB
:100B100000283FF4F3AE00F0ADF900283FF4EEAE4C
:100B200000273B4612E01F2F1AD80C9A013217D02B
:100B300027F0030250326A4452F8200C0790042236
:100B4000184607A900F04EFB04370346DBF80820DF
:100B5000BA42E8D80793042107A800F011F916E774
:100B60003846029300F04AF9029BE7E7002364212C
:100B700006A8069300F0FCF800287FF4BFAE022020
:100B8000FFF712FD00283FF4B9AE069800F068F9AF
:100B90000790E0E70023642106A8069300F0E8F838
:100BA00000287FF4ABAE0220FFF7FEFC00283FF4E4
:100BB000A5AE069800F056F9EAE70220FFF7F4FC2C
:100BC00000283FF49BAE00F065F9E1E70220FFF753
:100BD000EBFC00283FF492AE07A9142000F060F966
:100BE00007460421069006A800F0CAF83946B3E784
:100BF000322000F0A9F8071EFFF680AEBB077FF495
:100C00007DAE07EB0803DBF8082093423FF676AE93
:100C10000220FFF7C9FC00283FF470AE27F003075D
:100C20004744B8453FF4B3AE404608F1040800F02D
:100C3000E5F80421079007A800F0A2F8F1E74FF4C7
:100C40007A70FFF7B1FC00283FF458AE00F012F9BB
:100C500000283FF4E3AE0C9B01330CD008220CA912
:100C6000002000F0BBF900283FF4D8AE2022FF217D
:100C70000CA800F0ABF9FFF79FFC194801F0A8FDA4
:100C800015B0BDE8F08F002C3FF438AE0AF00B032E
:100C90000B2B7FF433AE0023642107A8079300F0E9
:100CA00067F8074600287FF429AE0220FFF77CFC96
:100CB000029000283FF422AEFFF77EFC41F288301C
:100CC00001F086FD079800F015FA3D4600F0CAF9DC
:100CD000029B1C46B2E54FF000080FE67022002090
:100CE000A08601002DE9F0474FF47A7706460D46BD
:100CF00000245743DFF84880DFF8489098F9003027
:100D00005A1C01D0A3420FD159F824002A4631467B
:100D10000368D3F820A03B46D047854204D1074B57
:100D200001201C70BDE8F0870134042CE6D14FF49B
:100D3000FA7001F04DFD0020F4E700BFC823002049
:100D40001022002014220020002307B502460121B2
:100D50000DF107008DF80730FFF7C4FF20B19DF8B3
:100D6000070003B05DF804FB4FF0FF30F9E7000027
:100D70000A46042108B5FFF7B5FF013808BD000099
:100D8000074B0A4630B419780546064B53F8210044
:100D900029460368DC69044BA44630BC604700BFA9
:100DA000C823002014220020A086010070B5104C3A
:100DB0000026104D02F022F8208028682388834204
:100DC00008D902F017F82B6806440133B6F5004F36
:100DD0002B60F2D300252088013802F00BF823881D
:100DE0000544013BB5F5802F2380F4D370BD00BFCF
:100DF000C0230020C423002002F0D6B800F1006018
:100E000000F500400068704700F10060920000F5B6
:100E1000004002F051B80000054B1A68054B1B88D2
:100E20009B1A834202D9104401F0E4BF00207047AE
:100E3000C4230020C023002038B5084D044628688C
:100E400029B128682044BDE8384001F0EDBF2044B6
:100E500001F0D6FF0028F4D038BD00BFC423002025
:100E60000020704700F1FF5000F58F10D0F8000807
:100E700070470000064991F8243033B1002308225E
:100E8000086A81F82430FFF7BFBF0120704700BF18
:100E900098230020014B1868704700BF0010005CC9
:100EA000194B1A4A70B51D68431E0420C5F30B0484
:100EB0000B442D0C013808D19942084610D3052463
:100EC000134A013C15D1401A70BD1688A6420ED1B6
:100ED00052680846013A9842F1D212F9014F1CB902
:100EE0002C2200F8012BEAE700F8014BF3E7083267
:100EF000E0E71688AE4204D198423CBF967800F8ED
:100F0000016B0432DDE700BF0010005C24220020EA
:100F1000A4480008022804D1054B4FF400329A611E
:100F200070470128FCD1024B4FF48032F7E700BF35
:100F300000040258022802D1024B986101E0012806
:100F4000FAD0704700040258022805D1064A5369B6
:100F500083F00203536170470128FCD1024A5369B0
:100F600083F00103F6E700BF0004025870B50446A1
:100F70004FF47A7604B970BD412C254628BF41252F
:100F800006FB05F0641B01F023FCF3E7002310B51A
:100F9000934200D110BDCC5CC4540133F8E700008B
:100FA000013810B510F9013F3BB191F900409C4266
:100FB00003D11AB10131013AF4E71AB191F90020D5
:100FC000981A10BD1046FCE7FFF7FEBF0244034627
:100FD000934200D1704703F8011BF9E72DE9F8436C
:100FE0001F4D14460746884695F8242022B9DFF89D
:100FF00070906CB9012009E02B6A03EB82038342F5
:10100000F5D0FFF737FF0028F1D10020BDE8F883C5
:1010100095F824302BB92022FF2148462F62FFF794
:10102000D5FF95F824004146C0F1080205EB800089
:10103000A24228BF2246D6B29200FFF7A7FF95F83A
:101040002430A41B17441E449044E4B2F6B2082E88
:1010500085F82460CDD1FFF70DFF0028C9D1D4E772
:1010600098230020024B1A78024B1A70704700BF79
:10107000C823002010220020F8B5194C194800F0B0
:10108000FBFE2146174800F023FF24684FF47A70D6
:10109000154ED4F89020154DD2F80438114F43F076
:1010A0000203C2F80438FFF761FF2046104901F03F
:1010B0001DF8D4F890200524D2F8043823F0020358
:1010C000C2F804384FF4E1333360013C00D1F8BD7D
:1010D00055F8040BB842F8D0314600F02BFEF4E787
:1010E000B04A0008B0360020CC2300201422002093
:1010F000B84A0008F8B50C4B05460C4E1F780C4B4F
:1011000056F827209A420DD00A4C0021182220467A
:10111000FFF75CFF214656F827002560BDE8F84040
:1011200000F008BEF8BD00BFC82300201422002034
:10113000B0360020CC230020F0B5A1B071B600235A
:1011400001200024802619461A4600F049FA4FF47F
:10115000D06521493D270B6923BBD1F810310BBB6A
:10116000036804F100629A600368C3F80CD0036856
:101170005E6003681D600268136843F0010313603A
:101180000268136823F01E03136003681A68D2070D
:10119000FCD4037B8034426807FA03F3B4F5001FE4
:1011A0001360D8D100F05CFAB4F5001F0BD0002416
:1011B0000A4D0B4E012001F0F7FE2B88A34205D803
:1011C000002001F0F1FE61B621B0F0BD306820448E
:1011D000013401F029FEF0E700200052C023002076
:1011E000C423002030B50A44084D914200D130BDDF
:1011F00011F8013B5840082340F30004013B2C4008
:1012000013F0FF0384EA5000F6D1EEE72083B8ED37
:1012100008B5074B074A196801F03D01996053680A
:101220000BB190689847BDE8084001F07FBF00BF50
:1012300000000240E423002008B5084B1968890922
:1012400001F03D018A019A60054AD3680BB110692B
:101250009847BDE8084001F069BF00BF00000240A8
:10126000E423002008B5084B1968090C01F03D0182
:101270000A049A60054A53690BB190699847BDE822
:10128000084001F053BF00BF00000240E4230020EB
:1012900008B5084B1968890D01F03D018A059A606F
:1012A000054AD3690BB1106A9847BDE8084001F0C0
:1012B0003DBF00BF00000240E423002008B5074BFB
:1012C000074A596801F03D01D960536A0BB1906A31
:1012D0009847BDE8084001F029BF00BF0000024068
:1012E000E423002008B5084B5968890901F03D0145
:1012F0008A01DA60054AD36A0BB1106B9847BDE8E2
:10130000084001F013BF00BF00000240E4230020AA
:1013100008B5084B5968090C01F03D010A04DA6070
:10132000054A536B0BB1906B9847BDE8084001F03C
:10133000FDBE00BF00000240E423002008B5084BBA
:101340005968890D01F03D018A05DA60054AD36BC1
:101350000BB1106C9847BDE8084001F0E7BE00BF34
:1013600000000240E423002008B5074B074A196833
:1013700001F03D019960536C0BB1906C9847BDE84A
:10138000084001F0D3BE00BF00040240E423002067
:1013900008B5084B1968890901F03D018A019A6076
:1013A000054AD36C0BB1106D9847BDE8084001F0B9
:1013B000BDBE00BF00040240E423002008B5084B76
:1013C0001968090C01F03D010A049A60054A536D41
:1013D0000BB1906D9847BDE8084001F0A7BE00BF73
:1013E00000040240E423002008B5084B1968890D69
:1013F00001F03D018A059A60054AD36D0BB1106E6C
:101400009847BDE8084001F091BE00BF00040240CB
:10141000E423002008B5074B074A596801F03D0155
:10142000D960536E0BB1906E9847BDE8084001F04B
:101430007DBE00BF00040240E423002008B5084B35
:101440005968890901F03D018A01DA60054AD36EC5
:101450000BB1106F9847BDE8084001F067BE00BFB0
:1014600000040240E423002008B5084B5968090C29
:1014700001F03D010A04DA60054A536F0BB1906F29
:101480009847BDE8084001F051BE00BF000402408B
:10149000E423002008B5084B5968890D01F03D018F
:1014A0008A05DA60054AD36F13B1D2F880009847F5
:1014B000BDE8084001F03ABE00040240E4230020E9
:1014C00000230C4A10B519460B4C42F8043B54F863
:1014D0002300016042F813100433402BF7D1074A70
:1014E0004FF0FF339360D360C2F80834C2F80C3475
:1014F00010BD00BFE4230020304900080000024076
:1015000011282DE9F041884611D004D8102810D1B7
:101510000F24002003E0122807D10F2407202D4FAD
:101520004FF0010C3D68A04205D900204DE0072492
:10153000EFE70446F3E70CFA00F6354247D107EB34
:10154000C0043543C4E90123F3B23D6073B1224BBB
:10155000D3F8D84044F00104C3F8D840D3F8004190
:1015600044F00104C3F80041D3F8003116F47F4F72
:101570000ED0194BD3F8D84044F00204C3F8D84039
:10158000D3F8004144F00204C3F80041D3F800311D
:101590000501124C6359186820F01F001860186884
:1015A00010F00100FBD166194FF03D0C96F80CE0ED
:1015B00071680CFA0EF70F601860212058611AB19B
:1015C0004146B07B00F0E4F96019BDE8F0810130DC
:1015D000A9E700BFE4230020004402583049000876
:1015E00010B5302484F31188FFF78AFF002383F3BA
:1015F000118810BD10B50446807B00F0DFF9164954
:10160000637B01229A400B6823EA0203DAB20B6083
:1016100072B9124AD2F8D81021F00101C2F8D810DC
:10162000D2F8001121F00101C2F80011D2F8002116
:1016300013F47F4F0ED1094BD3F8D82022F00202C9
:10164000C3F8D820D3F8002122F00202C3F8002109
:10165000D3F8003110BD00BFE4230020004402583D
:1016600008B5302383F31188FFF7C4FF002383F309
:10167000118808BD026843680A43026003B1184735
:1016800070470000024A136843F0C00313607047BC
:1016900000440040024A136843F0C00313607047DF
:1016A00000480040024A136843F0C00313607047CB
:1016B0000014014037B5274C274D204600F02EFB83
:1016C00004F11400009400234FF40072234900F049
:1016D000EBF94FF40072224904F138000094214BD9
:1016E00000F064FA204BC4E91735204C204600F086
:1016F00015FB04F11400009400234FF400721C4900
:1017000000F0D2F94FF400721A4904F13800009445
:10171000194B00F04BFA194BC4E91735184C204609
:1017200000F0FCFA04F1140000234FF40072154994
:10173000009400F0B9F9144B4FF40072134904F10E
:101740003800009400F032FA114BC4E9173503B0A9
:1017500030BD00BF4031002000E1F505682E0020BB
:10176000682C00208516000800440040D43000207A
:10177000682A0020682800209516000800480040CC
:101780006830002068260020A51600086824002084
:1017900000140140374B30B5002914BF0C461C46DD
:1017A000037C012B11D1344B98423DD1334BD3F8FC
:1017B000E82042F40032C3F8E820D3F8102142F4C4
:1017C0000032C3F81021D3F810312268036EC16DC6
:1017D00003EB52038466B3FBF2F36268150442BF65
:1017E00023F0070503F0070343EA4503CB60A36832
:1017F00043F040034B60E36843F001038B6042F425
:10180000967343F001030B604FF0FF330B625105F9
:101810002CD512F010222BD0B2F1805F14BFFF2321
:101820003F2380F8643030BD154B98420BD1134BE9
:10183000D3F8E82042F48022C3F8E820D3F810213E
:1018400042F48022BDE70F4B9842BED10B4BD3F838
:10185000F02042F02002C3F8F020D3F8182142F023
:101860002002C3F81821D3F81831AEE7FF23D8E7D8
:101870007F23D6E7304A0008403100200044025858
:10188000D4300020683000202DE9F047C66D0446B2
:101890003768F5692A07356219D045F30001C5F3A9
:1018A000C00301F0200141EA0321AB074FF03003F0
:1018B00048BF41F04001680748BF41F0800183F311
:1018C0001188201DFFF7D6FE002383F31188EA0557
:1018D0000AD5302383F311884FF48061201DFFF770
:1018E000C9FE002383F311884FF030094FF0000A3E
:1018F0000BE089F31188736A204694F8641019404C
:1019000000F026FA8AF31188F56915F02008F0D165
:101910003B0616D54FF0300A04F13809280610D5D9
:101920008AF31188484600F075F9002829DA082161
:10193000201DFFF79FFE27F080033360002383F311
:101940001188790614D56A0612D5302383F31188DD
:10195000D4E913239A4208D1236C33B127F040070E
:101960001021201DFFF786FE3760002383F31188C6
:10197000EB060BD5A26E136943B15069BDE8F04781
:101980001847B06288F31188F569C7E7BDE8F087AA
:10199000090100F16043012203F56143C9B283F8F4
:1019A000001300F01F039A4043099B0003F16043BA
:1019B00003F56143C3F880211A60704700F01F03EC
:1019C00001229A40430900F160409B0000F561400C
:1019D00003F1604303F56143C3F88020C3F880211D
:1019E000002380F800337047F8B515468268044636
:1019F0000B46AA4200D28568A1692669761AB542CB
:101A00000BD22A461846FFF7C1FAA2692A44A368F6
:101A10002846A2615B1BA360F8BD0CD9AF1B18461A
:101A20003246FFF7B3FA3A46E1683044FFF7AEFAC0
:101A3000E368DA19EBE72A461846FFF7A7FAE268E7
:101A4000E5E70000836893422DE9F04104460E4625
:101A5000154600D28568D4E904703F1ABD420CD205
:101A60002A463146FFF792FA62692A44A36828465B
:101A700062615B1BA360BDE8F0810ED9A5EB07088E
:101A80003A463146FFF782FA4246F119E068FFF71D
:101A90007DFAE36803EB0802E8E72A463146FFF7E0
:101AA00075FAE268E2E7000010B5C1600024C36186
:101AB000029B84600362C0E905111144C0E9000083
:101AC000016110BD08B5D0E90532934201D18268A9
:101AD00082B98268013282605A1C42611970002109
:101AE000D0E904329A4224BFC368436100F08CFEFF
:101AF000002008BD4FF0FF30FBE7000070B5302339
:101B000004460D4683F31188A668A6B1A368A269AE
:101B1000013BA360531CA36115782269934224BF43
:101B2000E368A361E3690BB120469847002383F380
:101B30001188284607E02946204600F055FE002877
:101B4000E2DA86F3118870BD2DE9F74F05460F469E
:101B500014469946D0F81CA04FF0300888F311883D
:101B60004FF0000B164666B1324639462846FFF75D
:101B70003BFF034660B94946284600F035FE002881
:101B8000F2D0002383F31188A01B03B0BDE8F08FCF
:101B9000BAF1000F03D001902846D047019B8BF388
:101BA0001188F61A1F4488F31188DCE7C160C3610D
:101BB000009B82600362C0E905111144C0E9000086
:101BC00001617047F8B504460D461646302383F38D
:101BD0001188A768A7B1A368013BA36063695A1C79
:101BE00062611D70D4E904329A4224BFE3686361E4
:101BF000E3690BB120469847002080F3118807E085
:101C00003146204600F0F0FD0028E2DA87F3118823
:101C1000F8BD0000D0E9052310B59A4201D18268D1
:101C20007AB982680021013282605A1C82611C7874
:101C300003699A4224BFC368836100F0E5FD204632
:101C400010BD4FF0FF30FBE72DE9F74F05460F467B
:101C500014469946D0F81CA04FF0300888F311883C
:101C60004FF0000B164666B1324639462846FFF75C
:101C7000E9FE034660B94946284600F0B5FD002854
:101C8000F2D0002383F31188A01B03B0BDE8F08FCE
:101C9000BAF1000F03D001902846D047019B8BF387
:101CA0001188F61A1F4488F31188DCE7026843683C
:101CB0000A43026003B11847704700001430FFF771
:101CC00043BF00004FF0FF331430FFF73DBF00006B
:101CD0003830FFF7B9BF00004FF0FF333830FFF75F
:101CE000B3BF00001430FFF709BF00004FF0FF3111
:101CF0001430FFF703BF00003830FFF763BF000068
:101D00004FF0FF323830FFF75DBF0000012914BFEC
:101D10006FF0130000207047FFF7CCBC044B03604A
:101D200000234360C0E9023301230374704700BFFE
:101D3000484A000810B53023044683F31188FFF7A2
:101D400029FD02230020237480F3118810BD0000B8
:101D500038B5C36904460D461BB904210844FFF792
:101D6000A5FF294604F11400FFF7ACFE002806DAAF
:101D7000201D4FF40061BDE83840FFF797BF38BD24
:101D8000026843680A43026003B1184770470000C5
:101D900013B5406B00F58054D4F8A4381A68117854
:101DA000042914D1017C022911D119790123128946
:101DB0008B4013420BD101A94C3002F095F8D4F8B6
:101DC000A4480246019B2179206800F0DFF902B0A7
:101DD00010BD0000143002F01DB800004FF0FF33BA
:101DE000143002F017B800004C3002F0E9B80000DF
:101DF0004FF0FF334C3002F0E3B80000143001F034
:101E0000EBBF00004FF0FF31143001F0E5BF0000E0
:101E10004C3002F0B5B800004FF0FF324C3002F009
:101E2000AFB800000020704710B500F58054D4F81A
:101E3000A4381A681178042917D1017C022914D119
:101E40005979012352898B4013420ED1143001F08D
:101E50007DFF024648B1D4F8A4084FF4407341799D
:101E60000068BDE8104000F07FB910BD406BFFF77F
:101E7000DBBF0000704700007FB5124B0125042630
:101E8000044603600023057400F184024360294680
:101E9000C0E902330C4B0290143001934FF44073AD
:101EA000009601F02FFF094B04F69442294604F1F5
:101EB0004C000294CDE900634FF4407301F0F0FF51
:101EC00004B070BD704A00086D1E0008911D000826
:101ED0000A68302383F311880B790B3342F823000F
:101EE0004B79133342F823008B7913B10B3342F84B
:101EF000230000F58053C3F8A418022303740020C4
:101F000080F311887047000038B5037F044613B191
:101F100090F85430ABB90125201D0221FFF730FFA6
:101F200004F114006FF00101257700F079FC04F151
:101F30004C0084F854506FF00101BDE8384000F0C7
:101F40006FBC38BD10B5012104460430FFF718FFFF
:101F50000023237784F8543010BD000038B50446C0
:101F60000025143001F0E6FE04F14C00257701F065
:101F7000AFFF201D84F854500121FFF701FF2046D8
:101F8000BDE83840FFF750BF90F88020034602F0CC
:101F90006002202A14D190F881200020212A02D842
:101FA0001F2A03D87047222A07D07047054A5A676C
:101FB00007229A67D86701207047C3E91D00F9E737
:101FC000002070473C22002037B500F58055D5F839
:101FD000A4381A68117804291AD1017C022917D172
:101FE0001979012312898B40134211D100F14C045D
:101FF000204602F02BF858B101A9204601F074FFE9
:10200000D5F8A4480246019B2179206800F0BEF86B
:1020100003B030BD01F10B03F7B550F8236004465F
:102020000D46F6B1302383F3118804EB8507301D8C
:1020300008214C36FFF7A4FEFB685B691B6813B1EF
:10204000304601F05FFF01A9304601F04DFF024626
:1020500048B1019B2946204600F098F8002383F3FD
:10206000118803B0F0BDFB685A691268002AF5D0E8
:102070001B8A013B1340F1D104F18002EAE7000022
:10208000133138B550F82140ECB1302383F3118877
:1020900004F58053D3F8A4281368527903EB820324
:1020A000DB689B695D6845B104216018FFF768FE35
:1020B000294604F1140001F053FE2046FFF7B4FE58
:1020C000002383F3118838BD7047000001F02CB95C
:1020D00001234022002110B5044600F8303BFEF7F2
:1020E00075FF0023C4E9013310BD000010B5302393
:1020F000044683F311882422416000210C30FEF74E
:1021000065FF204601F032F902230020237080F39E
:10211000118810BD70B500EB8103054650690E466D
:102120001446DA6018B110220021FEF74FFFA069B3
:1021300018B110220021FEF749FF31462846BDE8BC
:10214000704001F019BA000083682022002103F0DA
:10215000011310B5044683601030FEF737FF2046A8
:10216000BDE8104001F092BAF0B4012500EB810403
:1021700047898D40E4683D43A4694581236000237D
:10218000A2606360F0BC01F0AFBA0000F0B40125BA
:1021900000EB810407898D40E4683D436469058153
:1021A00023600023A2606360F0BC01F025BB000047
:1021B00070B5022300250446242203702946C0F886
:1021C00088500C3040F8045CFEF700FF204684F88D
:1021D000705001F065F963681B6823B129462046F9
:1021E000BDE87040184770BD0378052B10B5044654
:1021F0000AD080F88C300523037043681B680BB14C
:10220000042198470023A36010BD00000178052930
:1022100006D190F88C20436802701B6803B1184700
:102220007047000070B590F87030044613B1002379
:1022300080F8703004F18002204601F04BFA6368A8
:102240009B68B3B994F8803013F0600535D0002155
:10225000204601F033FD0021204601F023FD636894
:102260001B6813B1062120469847062384F8703076
:1022700070BD204698470028E4D0B4F88630A26F9D
:102280009A4288BFA36794F98030A56F002B4FF066
:10229000300380F20381002D00F0F280092284F8DF
:1022A000702083F3118800212046D4E91D23FFF715
:1022B0006DFF002383F31188DAE794F8812003F09F
:1022C0007F0343EA022340F20232934200F0C580CA
:1022D00021D8B3F5807F48D00DD8012B3FD0022BF9
:1022E00000F09380002BB2D104F1880262670222D1
:1022F000A267E367C1E7B3F5817F00F09B80B3F588
:10230000407FA4D194F88230012BA0D1B4F888305A
:1023100043F0020332E0B3F5006F4DD017D8B3F5A8
:10232000A06F31D0A3F5C063012B90D8636820461D
:1023300094F882205E6894F88310B4F88430B04733
:10234000002884D0436863670368A3671AE0B3F585
:10235000106F36D040F6024293427FF478AF5C4B68
:1023600063670223A3670023C3E794F88230012B3D
:102370007FF46DAFB4F8883023F00203A4F88830FE
:10238000C4E91D55E56778E7B4F88030B3F5A06F70
:102390000ED194F88230204684F88A3001F0DEF8BD
:1023A00063681B6813B101212046984703232370FB
:1023B0000023C4E91D339CE704F18B036367012309
:1023C000C3E72378042B10D1302383F311882046F0
:1023D000FFF7BAFE85F311880321636884F88B50F8
:1023E00021701B680BB12046984794F88230002B6F
:1023F000DED084F88B300423237063681B68002BC5
:10240000D6D0022120469847D2E794F8843020465F
:102410001D0603F00F010AD501F04EF9012804D082
:1024200002287FF414AF2B4B9AE72B4B98E701F06F
:1024300035F9F3E794F88230002B7FF408AF94F875
:10244000843013F00F01B3D01A06204602D501F0F4
:102450004DFCADE701F03EFCAAE794F88230002B7A
:102460007FF4F5AE94F8843013F00F01A0D01B0672
:10247000204602D501F022FC9AE701F013FC97E711
:10248000142284F8702083F311882B462A462946AB
:102490002046FFF769FE85F31188E9E65DB1152254
:1024A00084F8702083F3118800212046D4E91D238D
:1024B000FFF75AFEFDE60B2284F8702083F31188A3
:1024C0002B462A4629462046FFF760FEE3E700BF79
:1024D000A04A00089C4A0008984A000838B590F8BD
:1024E00070300446002B3ED0063BDAB20F2A34D8B7
:1024F0000F2B32D8DFE803F0373131082232313187
:102500003131313131313737856FB0F886309D4206
:1025100014D2C3681B8AB5FBF3F203FB12556DB9E5
:10252000302383F311882B462A462946FFF72EFED7
:1025300085F311880A2384F870300EE0142384F8A0
:102540007030302383F31188002320461A46194641
:10255000FFF70AFE002383F3118838BDC36F03B170
:1025600098470023E7E70021204601F0A7FB002160
:10257000204601F097FB63681B6813B106212046D3
:1025800098470623D7E7000010B590F8703004464E
:10259000142B29D017D8062B05D001D81BB110BD9C
:1025A000093B022BFBD80021204601F087FB0021CC
:1025B000204601F077FB63681B6813B106212046B3
:1025C0009847062319E0152BE9D10B2380F87030CA
:1025D000302383F3118800231A461946FFF7D6FDEE
:1025E000002383F31188DAE7C3689B695B68002BDB
:1025F000D5D1C36F03B19847002384F87030CEE77C
:1026000000238268037503691B6899689142FBD2B5
:102610005A68036042601060586070470023826807
:10262000037503691B6899689142FBD85A68036077
:10263000426010605860704708B50846302383F345
:1026400011880B7D032B05D0042B0DD02BB983F300
:10265000118808BD8B6900221A604FF0FF33836137
:10266000FFF7CEFF0023F2E7D1E9003213605A6092
:10267000F3E70000FFF7C4BF054BD9680875186879
:10268000026853601A600122D8600275FDF7BABE75
:10269000C03300200C4B30B5DD684B1C87B00446BE
:1026A0000FD02B46094A684600F04EF92046FFF746
:1026B000E3FF009B13B1684600F050F9A86907B02A
:1026C00030BDFFF7D9FFF9E7C033002039260008F5
:1026D000044B1A68DB6890689B68984294BF00209E
:1026E00001207047C0330020084B10B51C68D86823
:1026F000226853601A600122DC602275FFF78EFFAA
:1027000001462046BDE81040FDF77CBEC0330020E6
:1027100038B5074C0123002506490748237065603A
:1027200001F0D2FC0223237085F3118838BD00BF6D
:1027300018340020A44A0008C033002000F044B937
:10274000034A516853685B1A9842FBD8704700BF30
:10275000001000E08B600223086108468B827047FE
:102760008368A3F1840243F8142C026943F8442CD3
:10277000426943F8402C094A43F8242CC268A3F16B
:10278000200043F8182C022203F80C2C002203F836
:102790000B2C034A43F8102C704700BF1D0400089F
:1027A000C033002008B5FFF7DBFFBDE80840FFF7A6
:1027B00061BF0000024BDB6898610F20FFF75CBF30
:1027C000C0330020302383F31188FFF7F3BF0000EC
:1027D00008B50146302383F311880820FFF75AFF1C
:1027E000002383F3118808BD064BDB6839B14268CA
:1027F00018605A60136043600420FFF74BBF4FF02E
:10280000FF307047C033002003460068834205D084
:1028100002681A6053608161FFF72CBF70470000A7
:1028200038B504460D462068844200D138BD03689F
:1028300023605C608561FFF71DFFF4E7036810B556
:102840009C68A2420CD85C680B608A604C60216076
:1028500059609968891A99604FF0FF33836010BD01
:10286000121B1B68ECE700000A2938BF0A2170B56B
:1028700004460D460A26601901F01EFC01F006FC14
:10288000041BA54203D8751C04462E46F3E70A2E06
:1028900004D90120BDE8704001F056BC70BD0000B5
:1028A000F8B5144B14460A270D46D9610A2C8260EC
:1028B00003F1100238BF0A2442601A6902605060B6
:1028C0001861081901F0E8FB01F0E0FB431B064624
:1028D000A34206D37C1C28192746354601F0ECFBA1
:1028E000F2E70A2F04D90120BDE8F84001F02CBC22
:1028F000F8BD00BFC033002070B50D46064601F09C
:10290000C5FB0F490B4653F8102F9A4206D12A46B1
:1029100001463046BDE87040FFF7C2BFCB69C41A1C
:1029200093682C1928BF2C46A34202D92946FFF7E9
:102930009BFF224631460348BDE87040FFF77EBF4B
:10294000C0330020D0330020C0E90323002310B49B
:102950005DF8044B4361FFF7CFBF000010B5194C81
:10296000236998420DD08168D0E9003213605A6023
:102970009A680A449A60002303604FF0FF33A36112
:1029800010BD0268234643F8102F536000220260F6
:1029900022699A4203D1BDE8104001F087BB9368D9
:1029A00081680B44936001F071FB2269E1699268D0
:1029B000441AA242E4D91144BDE81040091AFFF7B5
:1029C00053BF00BFC03300202DE9F047DFF8B880C7
:1029D00008F110072B4ED8F8105001F057FBD8F82B
:1029E0001C40AA68011B8A423DD81444D5E9003234
:1029F000C8F81C4013605A6000232B609946D8F831
:102A00001020B24201D101F051FB89F31188D5E9C0
:102A1000033128469847302383F311886B69002BD4
:102A2000D9D001F033FB6A69A0EB040982464A451C
:102A30000DD2022001F088FB0022D8F81030B342FA
:102A400008D151462846BDE8F047FFF729BF224488
:102A5000121AF2E712EB09092946384638BF4A46EE
:102A6000FFF7ECFEB6E7D8F81010B14208D01444D6
:102A7000C8F81C00211AA960BDE8F047FFF7F4BEB2
:102A8000BDE8F087D0330020C0330020002070471D
:102A9000FEE70000704700004FF0FF307047000075
:102AA00002290CD0032904D00129074818BF0020AF
:102AB0007047032A05D8054800EBC2007047044858
:102AC00070470020704700BF604B00084422002080
:102AD000144B000870B59AB005460846144601A983
:102AE00000F0BEF801A8FEF76FFA431C0022C6B240
:102AF0005B001046C5E9003423700323023404F858
:102B0000013C01ABD1B202348E4201D81AB070BD83
:102B100013F8011B013204F8010C04F8021CF1E760
:102B200008B5302383F311880348FFF74DFA0023DB
:102B300083F3118808BD00BFB036002090F88030C4
:102B400003F01F02012A07D190F881200B2A03D13C
:102B50000023C0E91D3315E003F06003202B08D1EA
:102B6000B0F884302BB990F88120212A03D81F2A8D
:102B700004D8FFF709BA222AEBD0FAE7034A4267E2
:102B800007228267C3670120704700BF64220020CC
:102B900010B50446052916D8DFE801F0161503160E
:102BA000161D302383F311880E4A0121FFF7B2FA74
:102BB00020460D4A0221FFF7ADFA0C48FFF7CEF987
:102BC000002383F3118810BD302383F31188074855
:102BD000FFF79AF9F4E7302383F311880348FFF7EE
:102BE000B1F9EDE7EC4A0008C84A0008B036002009
:102BF00038B50B4D0B4C2A460B492046FFF76AFFB0
:102C000005F1CA0204F108000849FFF763FF05F562
:102C1000CA7204F110000649BDE83840FFF75ABFF8
:102C2000503400204C220020E2480008EC48000804
:102C3000F748000870B5044608460D46FEF7C4F98B
:102C4000C6B22046013403780BB9184670BD32462F
:102C50002946FEF7A5F90028F3D10120F6E7000088
:102C60002DE9F04105460C46FEF7AEF92B49C6B2F8
:102C70002846FFF7DFFF08B10436F6B22849284698
:102C8000FFF7D8FF08B11036F6B2632E07D8234FEE
:102C9000DFF88C802E7846B92670BDE8F081294691
:102CA0002046BDE8F041FDF7C7BB252E31D10722F4
:102CB00039462846FEF774F978B91A4B07350B34B4
:102CC0001A6844F80B2C5A6844F8072C1A899B7A26
:102CD00024F8032C04F8013CDCE70822414628468E
:102CE000FEF75EF9A8B9A21C0F4B1048104E1978D8
:102CF00002320909415C02F8041C13F8011B01F0BF
:102D00000F01B342415C02F8031CF0D118340835BE
:102D1000C0E7013504F8016BBCE700BF00490008BB
:102D2000F74800080849000800E8F11F14490008A6
:102D30000CE8F11FBFF34F8F044B1A695107FCD108
:102D4000D3F810215207F8D1704700BF002000527D
:102D500008B50D4B1B78ABB9FFF7ECFF0B4BDA68EE
:102D6000D10704D50A4A5A6002F188325A60D3F872
:102D70000C21D20706D5064AC3F8042102F1883295
:102D8000C3F8042108BD00BF584F002000200052A6
:102D90002301674508B5114B1B78F3B9104B1A692D
:102DA000510703D5DA6842F04002DA60D3F8102107
:102DB000520705D5D3F80C2142F04002C3F80C218C
:102DC000FFF7B8FF064BDA6842F00102DA60D3F889
:102DD0000C2142F00102C3F80C2108BD584F00201D
:102DE000002000520F289ABF00F5806040040020A8
:102DF000704700004FF4003070470000102070470B
:102E00000F2808B50ED8FFF7EDFF0368013309D18D
:102E100000F500330430834201D1012008BD02686F
:102E20000132F7D00020F9E70F2838B505463FD822
:102E3000FFF780FF1F4CFFF78BFF4FF0FF33072892
:102E40006361C4F814311DD82361FFF773FF0302D7
:102E500043F02403E360E36843F08003E360236905
:102E60005A07FCD42846FFF765FFFFF7BBFF4FF476
:102E7000003100F0FBF82846FFF78CFFBDE8384032
:102E8000FFF7BEBFC4F81031FFF754FFA0F10803ED
:102E90001B0243F02403C4F80C31D4F80C3143F086
:102EA0008003C4F80C31D4F810315B07FBD4D9E7A8
:102EB000002038BD002000522DE9F84F04460D4691
:102EC000104644EA0203DB0602D00020BDE8F88F7A
:102ED00020F01F00DFF8C8A0DFF8C8B0FFF738FF08
:102EE00005EB0008454503D10120FFF753FFEDE74F
:102EF000202221462846FDF7FDFA10B9203420355E
:102F0000F0E723680133E0D1234604F120020433C3
:102F100093423BD104F178431E4E1F48B3F5801F06
:102F20001E4B28BF9946A3F582732EBF5846D14643
:102F30001E46FFF7FFFE4FF0FF33A4EB050C05F133
:102F40001C010360336843F0020333602B1FD9F880
:102F5000007017F00507FAD153F8042F8B424CF894
:102F60000320F4D1BFF34F8FFFF7E4FE4FF0FF33A0
:102F70002022294603602046336823F00203336091
:102F8000FDF7B8FA0028B9D03846AEE71968013124
:102F9000BDD09AE70C21005214200052102100529B
:102FA000102000521421005210B5084C237828B18B
:102FB0001BB9FFF7CDFE0123237010BD002BFCD001
:102FC0002070BDE81040FFF7E5BE00BF584F00205D
:102FD0000244074BD2B210B5904200D110BD441C40
:102FE00000B253F8200041F8040BE0B2F4E700BF50
:102FF000504000580E4B30B51C6F240405D41C6F94
:103000001C671C6F44F400441C670A4C024423688C
:10301000D2B243F480732360074B904200D130BD9D
:10302000441C51F8045B00B243F82050E0B2F4E7CE
:1030300000440258004802585040005807B5012289
:1030400001A90020FFF7C4FF019803B05DF804FB5D
:1030500013B50446FFF7F2FFA04205D0012201A9F3
:1030600000200194FFF7C6FF02B010BD0144BFF37A
:103070004F8F064B884204D3BFF34F8FBFF36F8F40
:103080007047C3F85C022030F4E700BF00ED00E0B9
:10309000034B1A681AB9034AD2F8D0241A60704751
:1030A0005C4F00200040025808B5FFF7F1FF024BCB
:1030B0001868C0F3806008BD5C4F0020EFF30983FF
:1030C000054968334A6B22F001024A6383F3098899
:1030D000002383F31188704700EF00E0302080F375
:1030E000118862B60D4B0E4AD96821F4E0610904DB
:1030F000090C0A430B49DA60D3F8FC2042F08072D5
:10310000C3F8FC20084AC2F8B01F116841F0010161
:1031100011602022DA7783F82200704700ED00E08A
:103120000003FA0555CEACC5001000E0302310B501
:1031300083F311880E4B5B6813F4006314D0F1EE37
:10314000103AEFF309844FF08073683CE361094B58
:10315000DB6B236684F30988FFF7BAFA10B1064BDC
:10316000A36110BD054BFBE783F31188F9E700BFAE
:1031700000ED00E000EF00E02F040008320400083A
:1031800070B5BFF34F8FBFF36F8F1A4A0021C2F89B
:103190005012BFF34F8FBFF36F8F536943F4003367
:1031A0005361BFF34F8FBFF36F8FC2F88410BFF32B
:1031B0004F8FD2F8803043F6E074C3F3C900C3F3F5
:1031C0004E335B0103EA0406014646EA8175013984
:1031D000C2F86052F9D2203B13F1200FF2D1BFF3B5
:1031E0004F8F536943F480335361BFF34F8FBFF365
:1031F0006F8F70BD00ED00E0FEE70000214B22481C
:10320000224A70B5904237D3214BC11EDA1C121AE4
:1032100022F003028B4238BF00220021FDF7D6FEC8
:103220001C4A0023C2F88430BFF34F8FD2F880309D
:1032300043F6E074C3F3C900C3F34E335B0103EA02
:103240000406014646EA81750139C2F86C52F9D28A
:10325000203B13F1200FF2D1BFF34F8FBFF36F8FDD
:10326000BFF34F8FBFF36F8F0023C2F85032BFF30D
:103270004F8FBFF36F8F70BD53F8041B40F8041BD2
:10328000C0E700BF5C4D00083051002030510020E5
:103290003051002000ED00E0074BD3F8D82022EA9F
:1032A0000002C3F8D820D3F8002122EA0002C3F8B4
:1032B0000021D3F8003170470044025870B5D0E9BE
:1032C000244300224FF0FF359E6804EB4213510166
:1032D000D3F80009002805DAD3F8000940F080404F
:1032E000C3F80009D3F8000B002805DAD3F8000B67
:1032F00040F08040C3F8000B01326318B242C3F8BB
:103300000859C3F8085BE0D94FF00113C4F81C3822
:1033100070BD0000890141F02001016103699B0635
:10332000FCD41220FFF70CBA10B50A4C2046FEF769
:10333000CFFE094BC4F89030084BC4F89430084CC9
:103340002046FEF7C5FE074BC4F89030064BC4F884
:10335000943010BD1450002000000840884B000835
:10336000784F0020000004407C4B000870B50378C3
:103370000546012B5CD1434BD0F89040984258D180
:10338000414B0E216520D3F8D82042F00062C3F8EB
:10339000D820D3F8002142F00062C3F80021D3F80E
:1033A0000021D3F8802042F00062C3F88020D3F8D7
:1033B000802022F00062C3F88020D3F88030FEF72E
:1033C000E7FA324BE360324BC4F800380023D5F8FB
:1033D0009060C4F8003EC02323604FF40413A3633D
:1033E0003369002BFCDA01230C203361FFF7A8F9C5
:1033F0003369DB07FCD41220FFF7A2F93369002BF5
:10340000FCDA00262846A660FFF758FF6B68C4F870
:103410001068DB68C4F81468C4F81C6883BB1D4BD3
:10342000A3614FF0FF336361A36843F00103A3601E
:1034300070BD194B9842C9D1134B4FF080600E21DB
:10344000D3F8D82042F00072C3F8D820D3F8002176
:1034500042F00072C3F80021D3F80021D3F8802095
:1034600042F00072C3F88020D3F8802022F000726E
:10347000C3F88020D3F88030FFF70EFF4D209EE781
:10348000064BCDE714500020004402584014004081
:1034900003002002003C30C0784F0020083C30C0C0
:1034A000F8B5D0F89040054600214FF00066204660
:1034B000FFF730FFD5F8941000234FF001128F680A
:1034C0004FF0FF30C4F83438C4F81C2804EB431222
:1034D00001339F42C2F80069C2F8006BC2F80809C4
:1034E000C2F8080BF2D20B68D5F89020C5F89830D6
:1034F000636210231361166916F01006FBD11220C7
:10350000FFF71EF9D4F8003823F4FE63C4F800383E
:10351000A36943F4402343F01003A3610923C4F8D3
:103520001038C4F814380B4BEB604FF0C043C4F8AC
:10353000103B094BC4F8003BC4F81069C4F80039CB
:10354000D5F8983003F1100243F48013C5F89820A1
:10355000A362F8BD944B000840800010D0F8902082
:1035600090F88A10D2F8003823F4FE6343EA01137E
:10357000C2F80038704700002DE9F84300EB8103E2
:103580000C460FFA81F9D0F89050D9680022804695
:1035900060010E6806F00306731E022B05EB441350
:1035A00098BFB604C3F8102B04F110024FF00103CA
:1035B00094BF06F18056334E03FA02F38A6998BF2E
:1035C00006F50046002A39D04F8A04F158023743E5
:1035D0005201AF50D5F81C2813430022C5F81C38FF
:1035E0002B180127C3F81029A7404A69631E92B31C
:1035F0000A8A4033898B9208012905EB830388BF2F
:103600004A43D8F89810501841EA0241C8F8980087
:10361000284659602146FFF77DFE08EB8900C36804
:103620001B8A43EA84534834334364012B51D5F851
:103630001C383B43C5F81C38BDE8F88305EB491737
:10364000D7F8002B22F40042C7F8002BD5F81C282D
:1036500022EA0303C1E704F13F030B4A214628464F
:1036600005EB83035A60FFF755FE05EB4913D3F8CA
:10367000002922F40042C3F80029D5F81C3823EAB7
:103680000703D7E70080001000040002D0F8942060
:103690001268C0F89820FFF711BE00005831D0F82A
:1036A000903049015B5813F4004004D013F4001F1C
:1036B00014BF0120022070474831D0F890304901F2
:1036C0005B5813F4004004D013F4001F14BF012012
:1036D0000220704700EB8100C368196A0B68136011
:1036E0004B6853607047000000EB810330B5DD6824
:1036F000AA691368D36019B9402B84BF40231360B3
:103700006B8A1468D0F890201C4402EB4110013CF5
:1037100009B2B4FBF3F46343033323F0030343EA36
:10372000C44343F0C043C0F8103B2B6803F00303CD
:10373000012B0ED1D2F8083802EB411013F4807F30
:10374000D0F8003B14BF43F0805343F00053C0F85F
:10375000003B02EB4112D2F8003B43F00443C2F8B5
:10376000003B30BD2DE9F041D0F8906005460C4695
:1037700006EB4113D3F8087B3A07C3F8087B08D55A
:10378000D6F814381B0704D500EB8103DB685B68AF
:103790009847FA071FD5D6F81438DB071BD505EB79
:1037A0008403D9688B69C4B9488A5A68B2FBF0F6B9
:1037B00000FB16228AB91868DA6890420DD2121AF4
:1037C000C3E90024302383F3118821462846FFF7FC
:1037D0008BFF84F31188BDE8F08101226B89A24040
:1037E00023EA02036B81CB68002BF4D021462846E4
:1037F000BDE8F0411847000000EB81034A0170B5B5
:10380000DD68D0F890306C692668E6604EBB1A44DB
:103810004FF40020C2F810092A6802F00302012ABE
:103820000AB20ED1D3F8080803EB421410F4807FDB
:10383000D4F8000914BF40F0805040F00050C4F8A4
:10384000000903EB4212D2F8000940F00440C2F82C
:1038500000090122D3F834088A400243C3F834280F
:1038600070BD19B9402E84BF4020206020681A44E2
:103870002E8A8419013CB4FBF6F440EAC44040F0BF
:103880000050C7E72DE9F843D0F8906005460C4694
:103890004F0106EB4113D3F8088918F0010FC3F864
:1038A00008891CD0D6F81038DB0718D500EB810347
:1038B000D3F80CC0DCF81430D3F800E0DA68964591
:1038C00030D2A2EB0E024FF000091A60C3F8049048
:1038D000302383F31188FFF78FFF89F3118818F0E5
:1038E000800F1DD0D6F834380126A640334217D0B9
:1038F00005EB84030134D5F89050D3F80CC0E4B242
:103900002F44DCF8142005EB0434D2F800E05168B1
:10391000714513D3D5F8343823EA0603C5F8343893
:10392000BDE8F883012203898A4023EA0203038168
:10393000DCF80830002BD2D09847D0E7AEEB01037B
:10394000BCF81000834228BF0346D7F8180980B29C
:10395000B3EB800FE4D89068A0F1040959F8048F04
:10396000C4F80080A0EB09089844B8F1040FF5D81A
:103970001844194490605160C9E700002DE9F047F0
:10398000D0F8905004466E69AB691E4016F480581A
:103990006E6103D0BDE8F047FEF70ABC002E12DAD4
:1039A000D5F8003E9B0705D0D5F8003E23F0030371
:1039B000C5F8003ED5F80438204623F00103C5F8C9
:1039C0000438FEF723FC370505D52046FFF776FCC3
:1039D0002046FEF709FCB0040CD5D5F8083813F0E2
:1039E000060FEB6823F470530CBF43F4105343F4F9
:1039F000A053EB6031071BD56368DB681BB9AB696B
:103A000023F00803AB612378052B0CD1D5F8003ED9
:103A10009A0705D0D5F8003E23F00303C5F8003E11
:103A20002046FEF7F3FB6368DB680BB1204698473E
:103A3000F30234D50021D4F890900F4609EB4713D8
:103A4000D3F8002902F44022B2F5802F1FD1D3F819
:103A50000029002A1BDAD3F8002942F09042C3F86B
:103A60000029D3F80029002AFBDBD4F89000FFF7E7
:103A700051FC01222389BA4023EA0203238104EB8B
:103A80008703DB689B6813B13946204698470137A6
:103A9000D4F89430FFB29B689F423946CED9B70222
:103AA00026D5D4F8909000274FF0010A09EB471271
:103AB000D2F8003B03F44023B3F5802F11D1D2F8A4
:103AC000003B002B0DDA63890AFA07F223EA0203AE
:103AD000638104EB8703DB68DB6813B1394620465A
:103AE00098470137D4F89430FFB29B689F42DDD9E4
:103AF000F00618D5D4F89000026AC2F30A1702F053
:103B00000F0302F4F012B2F5802F00F08D80B2F5B1
:103B1000402F08D104EB8303002200F58050DB68BE
:103B20001B6A974273D13003D5F8185835D5E9038D
:103B300003D500212046FFF715FEAA0303D5012176
:103B40002046FFF70FFE6B0303D502212046FFF747
:103B500009FE2F0303D503212046FFF703FEE802E9
:103B600003D504212046FFF7FDFDA90203D5052159
:103B70002046FFF7F7FD6A0203D506212046FFF72E
:103B8000F1FD2B0203D507212046FFF7EBFDEF01E6
:103B900003D508212046FFF7E5FD70036BD5E90743
:103BA00003D500212046FFF76DFEAA0703D50121AA
:103BB0002046FFF767FE6B0703D502212046FFF77B
:103BC00061FE2F0703D503212046FFF75BFEEE06BB
:103BD00003D504212046FFF755FEA80603D505218D
:103BE0002046FFF74FFE690603D506212046FFF762
:103BF00049FE2A0603D507212046FFF743FEEB05C1
:103C000039D520460821BDE8F047FFF73BBE9107B4
:103C100001D1D0F80080072A02F101029CBF03F80D
:103C2000018B4FEA18287CE704EB830300F58050F2
:103C3000DA68D2F818C0DCF80820DCE9001CA1EB37
:103C40000C0C00218F4208D1DB689B699A683A44CA
:103C50009A605A683A445A6065E711F0030F01D13F
:103C6000D0F800808C4501F1010184BF02F8018B7E
:103C70004FEA1828E6E7BDE8F087000008B50348DA
:103C8000FFF77CFEBDE80840FFF750BA1450002053
:103C900008B50348FFF772FEBDE80840FFF746BAD3
:103CA000784F0020D0F8903003EB4111D1F8003B61
:103CB00043F40013C1F8003B70470000D0F8903087
:103CC00003EB4111D1F8003943F40013C1F8003976
:103CD00070470000D0F8903003EB4111D1F8003B61
:103CE00023F40013C1F8003B70470000D0F8903077
:103CF00003EB4111D1F8003923F40013C1F8003966
:103D00007047000030B50433039C0172002104FBAE
:103D10000325C160C0E90653049B0363059BC0E90A
:103D20000000C0E90422C0E90842C0E90A11436367
:103D300030BD00000022416AC260C0E90411C0E940
:103D40000A226FF00101FEF76BBD0000D0E90432DA
:103D5000934201D1C2680AB9181D7047002070470C
:103D6000036919600021C2680132C260C26913444C
:103D700082699342036124BF436A0361FEF744BD35
:103D800038B504460D46E3683BB162690020131D57
:103D90001268A3621344E36207E0237A33B9294629
:103DA0002046FEF721FD0028EDDA38BD6FF0010056
:103DB000FBE70000C368C269013BC3604369134469
:103DC00082699342436124BF436A43610023836253
:103DD000036B03B11847704770B53023044683F373
:103DE0001188866A3EB9FFF7CBFF054618B186F306
:103DF0001188284670BDA36AE26A13F8015B9342FA
:103E0000A36202D32046FFF7D5FF002383F3118876
:103E1000EFE700002DE9F84F04460F4691469A4619
:103E20004FF0300888F311880026B346A56A4DB9D3
:103E300051462046FFF7A4FF20B185F31188304694
:103E4000BDE8F88FD4E90A15A9EB06036D1A9D4267
:103E500028BF1D46402D1AD93B4601F1400251F8BA
:103E6000040B914243F8040BF9D1A36A4037403662
:103E70004033E26AA3629A4202D82046FFF79AFFD3
:103E80008BF311884E45DAD288F31188CEE7384695
:103E90002A46FDF77BF8A36A2F442E442B44E8E71B
:103EA00010B5029C0433017203FB0421C460C0E915
:103EB00006130023C0E90A33039B0363049BC0E994
:103EC0000000C0E90422C0E90842436310BD0000BD
:103ED000026A6FF00101C260426AC0E90422002256
:103EE000C0E90A22FEF79CBC0346D0E904208242C6
:103EF00001D1DB681BB950F8043B0B60704700230D
:103F00001846FAE7C3680021C2690133C3604369F8
:103F1000134482699342436124BF436A4361FEF7BD
:103F200073BC000038B504460D46E3683BB1236915
:103F300000201A1DA262E2691344E36207E0237ABB
:103F400033B929462046FEF74FFC0028EDDA38BD8C
:103F50006FF00100FBE7000003691960C268013AD5
:103F6000C260C269134482699342036124BF436AF9
:103F7000036100238362036B03B11847704700009D
:103F800070B530230D460446114683F31188866AC6
:103F90002EB9FFF7C7FF10B186F3118870BDA36A71
:103FA0001D70A36AE26A01339342A36204D3E169FC
:103FB00020460439FFF7D0FF002080F31188EDE799
:103FC0002DE9F84F05460C4691469A464FF03008C9
:103FD00088F311880027BB46AE6A4EB95146284681
:103FE000FFF7A0FF20B186F311883846BDE8F88FAF
:103FF000D5E90A06A9EB0703361A9E4228BF1E46DA
:10400000402E1AD904F1400354F8042B9C4240F886
:10401000042BF9D1AB6A40374033EA6AAB629A426B
:1040200004D8E96928460439FFF796FF8BF3118815
:104030004F45DAD288F31188CEE721463246FCF7A5
:10404000A5FFAB6A344437443344E6E7D0E90421A2
:1040500003468A4216D1C068A8B1986A98B104385C
:10406000801A10D010600120D9680139D960D9694F
:104070000A4499698A421A6124BF5A6A1A61002265
:104080009A6270470020704700F022B9014B586ACD
:10409000704700BF000C0040034B002258631A61B8
:1040A0000222DA60704700BF000C0040014B002282
:1040B000DA607047000C0040014B5863704700BF46
:1040C000000C0040FEE7000070B5002504461A4BC6
:1040D00086B085620E4601635860FEF7FFFF04F16B
:1040E0001003A560E562C4E904334FF0FF33C4E96F
:1040F0000044C4E90635FFF7C9FF2B46024604F128
:1041000034012046C4E9082380230C4A2565FEF7C4
:1041100021FB01230A4AE060009203756846726839
:104120000192B268CDE90223064BCDE90435FEF7D2
:1041300039FB06B070BD00BF1834002025490008C7
:104140002A490008C5400008024AD36A0343D362E3
:10415000704700BFC03300204B6843608B688360AA
:10416000CB68C3600B6943614B6903628B6943622F
:104170000B6803607047000008B53B4B40F2FF71CD
:104180003A48D3F888200A43C3F88820D3F8882017
:104190006FF30A02C3F88820D3F88820D3F8E02010
:1041A0000A43C3F8E020D3F808210A43C3F80821E2
:1041B0002F4AD3F808311146FFF7CEFF00F5806093
:1041C00002F11C01FFF7C8FF00F5806002F1380121
:1041D000FFF7C2FF00F5806002F15401FFF7BCFF5A
:1041E00000F5806002F17001FFF7B6FF00F5806016
:1041F00002F18C01FFF7B0FF00F5806002F1A80129
:10420000FFF7AAFF00F5806002F1C401FFF7A4FFE9
:1042100000F5806002F1E001FFF79EFF00F580608D
:1042200002F1FC01FFF798FF02F58C7100F5806048
:10423000FFF792FF00F018F90E4BD3F8902242F0EE
:104240000102C3F89022D3F8942242F00102C3F88D
:1042500094220522C3F898204FF06052C3F89C20A6
:10426000054AC3F8A02008BD0044025800000258C7
:10427000B84B000800ED00E01F00080308B500F08F
:10428000F1FAFEF745FA0F4BD3F8DC2042F040027A
:10429000C3F8DC20D3F8042122F04002C3F8042143
:1042A000D3F80431084B1A6842F008021A601A6801
:1042B00042F004021A60FEF7EBFEBDE80840FEF78C
:1042C00097BC00BF00440258001802487047000025
:1042D000114BD3F8E82042F00802C3F8E820D3F8E5
:1042E000102142F00802C3F810210C4AD3F8103113
:1042F000D36B43F00803D363C722094B9A624FF094
:10430000FF32DA6200229A615A63DA605A6001224F
:104310005A611A60704700BF004402580010005CE8
:10432000000C0040094A08B51169D3680B40D9B2A6
:104330009B076FEA0101116107D5302383F31188D0
:10434000FEF7FCF9002383F3118808BD000C004040
:10435000064BD3F8DC200243C3F8DC20D3F8042159
:104360001043C3F80401D3F80431704700440258E5
:1043700008B53C4B4FF0FF31D3F8802062F000428B
:10438000C3F88020D3F8802002F00042C3F88020D8
:10439000D3F88020D3F88420C3F88410D3F8842085
:1043A0000022C3F88420D3F88400D86F40F0FF4087
:1043B00040F4FF0040F4DF4040F07F00D867D86F42
:1043C00020F0FF4020F4FF0020F4DF4020F07F00C9
:1043D000D867D86FD3F888006FEA40506FEA505022
:1043E000C3F88800D3F88800C0F30A00C3F8880037
:1043F000D3F88800D3F89000C3F89010D3F8900059
:10440000C3F89020D3F89000D3F89400C3F8941028
:10441000D3F89400C3F89420D3F89400D3F898000C
:10442000C3F89810D3F89800C3F89820D3F89800F0
:10443000D3F88C00C3F88C10D3F88C00C3F88C2010
:10444000D3F88C00D3F89C00C3F89C10D3F89C10D0
:10445000C3F89C20D3F89C30FDF732F8BDE8084043
:1044600000F0CCB90044025808B50122534BC3F800
:104470000821534BD3F8F42042F00202C3F8F42091
:10448000D3F81C2142F00202C3F81C210222D3F807
:104490001C314C4BDA605A689104FCD54A4A1A60C8
:1044A00001229A60494ADA6000221A614FF44042C0
:1044B0009A61444B9A699204FCD51A6842F480725E
:1044C0001A603F4B1A6F12F4407F04D04FF48032D1
:1044D0001A6700221A671A6842F001021A60384B04
:1044E0001A685007FCD500221A611A6912F03802C6
:1044F000FBD1012119604FF0804159605A67344A5D
:10450000DA62344A1A611A6842F480321A602C4B1B
:104510001A689103FCD51A6842F480521A601A682E
:104520009204FCD52C4A2D499A6200225A631963E1
:1045300001F57C01DA6301F5E77199635A64284A51
:104540001A64284ADA621A6842F0A8521A601C4BB0
:104550001A6802F02852B2F1285FF9D148229A6114
:104560004FF48862DA6140221A621F4ADA641F4AF5
:104570001A651F4A5A651F4A9A6532231E4A1360FC
:10458000136803F00F03022BFAD10D4A136943F0AD
:1045900003031361136903F03803182BFAD14FF0AA
:1045A0000050FFF7D5FE4FF08040FFF7D1FE4FF0EF
:1045B0000040BDE80840FFF7CBBE00BF00800051BF
:1045C000004402580048025800C000F002000001F8
:1045D0000000FF010088900832206000630209019A
:1045E000470E0508DD0BBF01200000200000011070
:1045F0000910E00000010110002000524FF0B0420D
:1046000008B5D2F8883003F00103C2F8883023B12E
:10461000044A13680BB150689847BDE80840FEF79C
:1046200085BD00BFB05000204FF0B04208B5D2F8B1
:10463000883003F00203C2F8883023B1044A93683B
:104640000BB1D0689847BDE80840FEF76FBD00BFCA
:10465000B05000204FF0B04208B5D2F8883003F0D7
:104660000403C2F8883023B1044A13690BB15069BE
:104670009847BDE80840FEF759BD00BFB050002084
:104680004FF0B04208B5D2F8883003F00803C2F802
:10469000883023B1044A93690BB1D0699847BDE8CB
:1046A0000840FEF743BD00BFB05000204FF0B042BD
:1046B00008B5D2F8883003F01003C2F8883023B16F
:1046C000044A136A0BB1506A9847BDE80840FEF7E8
:1046D0002DBD00BFB05000204FF0B04310B5D3F84F
:1046E000884004F47872C3F88820A30604D5124ADF
:1046F000936A0BB1D06A9847600604D50E4A136BD3
:104700000BB1506B9847210604D50B4A936B0BB144
:10471000D06B9847E20504D5074A136C0BB1506C77
:104720009847A30504D5044A936C0BB1D06C984705
:10473000BDE81040FEF7FABCB05000204FF0B04387
:1047400010B5D3F8884004F47C42C3F88820620591
:1047500004D5164A136D0BB1506D9847230504D547
:10476000124A936D0BB1D06D9847E00404D50F4AFF
:10477000136E0BB1506E9847A10404D50B4A936E8B
:104780000BB1D06E9847620404D5084A136F0BB181
:10479000506F9847230404D5044A936F0BB1D06F30
:1047A0009847BDE81040FEF7C1BC00BFB0500020E4
:1047B00008B50348FDF768F8BDE80840FEF7B6BC49
:1047C0004031002008B50348FDF75EF8BDE8084019
:1047D000FEF7ACBCD430002008B50348FDF754F810
:1047E000BDE80840FEF7A2BC6830002008B5FFF71E
:1047F00099FDBDE80840FEF799BC0000062108B508
:104800000846FDF7C5F806210720FDF7C1F8062187
:104810000820FDF7BDF806210920FDF7B9F80621AB
:104820000A20FDF7B5F806211720FDF7B1F806219B
:104830002820FDF7ADF809217A20FDF7A9F8072116
:104840003220FDF7A5F80C212620FDF7A1F80C2158
:104850002720FDF79DF80C214720BDE80840FDF713
:1048600097B8000008B5FFF783FD00F00DF8FDF7DD
:1048700053FAFDF72BFCFDF7FDFAFFF727FDBDE826
:104880000840FFF701BC00000023054A1946013328
:10489000102BC2E9001102F10802F8D1704700BFE5
:1048A000B050002001105A00031059000120580098
:1048B0000320560053544D333248373F3F3F005397
:1048C000544D3332483733782F3732780053544DB4
:1048D0003332483734332F3735332F373530006391
:1048E000300044454644524F4E45530025424F4107
:1048F0005244252D424C002553455249414C250038
:1049000025424F41524425004261676E65744465FB
:1049100066387300303132333435363738394142F6
:1049200043444546006D61696E0069646C65000032
:1049300010000240080002400008024000000B0086
:1049400028000240080002400408024006010C0052
:1049500040000240080002400808024010020D001A
:1049600058000240080002400C08024016030E00E6
:10497000700002400C0002401008024000040F00CA
:10498000880002400C000240140802400605100096
:10499000A00002400C00024018080240100611005E
:1049A000B80002400C0002401C08024016072F000D
:1049B00010040240080402402008024000083800A9
:1049C0002804024008040240240802400609390075
:1049D000400402400804024028080240100A3A003D
:1049E00058040240080402402C080240160B3B0009
:1049F000700402400C04024030080240000C3C00ED
:104A0000880402400C04024034080240060D4400B1
:104A1000A00402400C04024038080240100E450079
:104A2000B80402400C0402403C080240160F460045
:104A300000960000000000000000000000000000E0
:104A4000000000000000000000000000D91C000869
:104A5000C51C0008011D0008ED1C0008F91C000819
:104A6000E51C0008D11C0008BD1C00080D1D000835
:104A700000000000F11D0008DD1D0008191E0008DF
:104A8000051E0008111E0008FD1D0008E91D000894
:104A9000D51D0008251E00080100000000000000D0
:104AA00000000000DF480008B0310020C0330020C3
:104AB0001450002001010200912B0008A12A0008D7
:104AC0003D2B0008212B000803000000000000001F
:104AD000C920000800000000100000002034002061
:104AE00000000000010000000000000002000000C3
:104AF0000000000015200008812000084000400050
:104B0000403400203034002002000000000000008B
:104B100004030904430000001C4B00080902430081
:104B2000020100C032090400000102020100052454
:104B300000100105240100010424020205240600DE
:104B400001070582030800FF09040100020A0000B2
:104B50000007050102400000070581024000000037
:104B600012000000684B0008120110010200004012
:104B70000912415700020102030100000001000078
:104B8000001000000800000080000000400100004C
:104B9000080000000000000025220008DD240008B5
:104BA0008925000840004000684F0020684F002021
:104BB00001000000604F00200000802A000000007B
:104BC000AAAAAAAA00000024FFFF0000000000001B
:104BD00000A00A001500001800000000AAAAAAAA56
:104BE00000000020FBFF000000000000000070003B
:104BF00000A0005000000000AAAAAAAA00500000CD
:104C0000FF3F0000000000770000000000294A007C
:104C100000000000AAAAAAAA00140500EFF70000ED
:104C20000000700777000000600004010000000031
:104C3000AAAAAAAA00000000F3FD000000050000D7
:104C4000000000000000000000000000AAAAAAAABC
:104C500000000000FFFF0000000000000000000056
:104C60000000000000000000AAAAAAAA000000009C
:104C7000FFFF000000000000000000000000000036
:104C800000000000AAAAAAAA00000000FFFF00007E
:104C90000000000000000000000000000000000014
:104CA000AAAAAAAA00000000FFFF0000000000005E
:104CB000000000000000000000000000AAAAAAAA4C
:104CC00000000000FFFF00000000000000000000E6
:104CD0000000000000000000AAAAAAAA000000002C
:104CE000FFFF0000000000000000000000000000C6
:104CF0000F2700000000000000801B0000000000E3
:104D0000FF000000B0360020D430002040310020E9
:104D10006830002000000000B44800088304000050
:104D2000BF48000850040000CD480008009600006D
:104D30000000080004000000104B00080000000004
:104D40000000000000000000000000000000000063
:0C4D5000000000000096000000000800B9
:00000001FF
